{
  "_format": "hh-sol-artifact-1",
  "contractName": "ERC721ReferralNodeSales",
  "sourceName": "contracts/ERC721ReferralNodeSales.sol",
  "abi": [
    {
      "inputs": [],
      "stateMutability": "nonpayable",
      "type": "constructor"
    },
    {
      "inputs": [
        {
          "internalType": "address",
          "name": "target",
          "type": "address"
        }
      ],
      "name": "AddressEmptyCode",
      "type": "error"
    },
    {
      "inputs": [
        {
          "internalType": "address",
          "name": "implementation",
          "type": "address"
        }
      ],
      "name": "ERC1967InvalidImplementation",
      "type": "error"
    },
    {
      "inputs": [],
      "name": "ERC1967NonPayable",
      "type": "error"
    },
    {
      "inputs": [
        {
          "internalType": "address",
          "name": "sender",
          "type": "address"
        },
        {
          "internalType": "uint256",
          "name": "tokenId",
          "type": "uint256"
        },
        {
          "internalType": "address",
          "name": "owner",
          "type": "address"
        }
      ],
      "name": "ERC721IncorrectOwner",
      "type": "error"
    },
    {
      "inputs": [
        {
          "internalType": "address",
          "name": "operator",
          "type": "address"
        },
        {
          "internalType": "uint256",
          "name": "tokenId",
          "type": "uint256"
        }
      ],
      "name": "ERC721InsufficientApproval",
      "type": "error"
    },
    {
      "inputs": [
        {
          "internalType": "address",
          "name": "approver",
          "type": "address"
        }
      ],
      "name": "ERC721InvalidApprover",
      "type": "error"
    },
    {
      "inputs": [
        {
          "internalType": "address",
          "name": "operator",
          "type": "address"
        }
      ],
      "name": "ERC721InvalidOperator",
      "type": "error"
    },
    {
      "inputs": [
        {
          "internalType": "address",
          "name": "owner",
          "type": "address"
        }
      ],
      "name": "ERC721InvalidOwner",
      "type": "error"
    },
    {
      "inputs": [
        {
          "internalType": "address",
          "name": "receiver",
          "type": "address"
        }
      ],
      "name": "ERC721InvalidReceiver",
      "type": "error"
    },
    {
      "inputs": [
        {
          "internalType": "address",
          "name": "sender",
          "type": "address"
        }
      ],
      "name": "ERC721InvalidSender",
      "type": "error"
    },
    {
      "inputs": [
        {
          "internalType": "uint256",
          "name": "tokenId",
          "type": "uint256"
        }
      ],
      "name": "ERC721NonexistentToken",
      "type": "error"
    },
    {
      "inputs": [],
      "name": "FailedCall",
      "type": "error"
    },
    {
      "inputs": [
        {
          "internalType": "address",
          "name": "owner",
          "type": "address"
        }
      ],
      "name": "OwnableInvalidOwner",
      "type": "error"
    },
    {
      "inputs": [
        {
          "internalType": "address",
          "name": "account",
          "type": "address"
        }
      ],
      "name": "OwnableUnauthorizedAccount",
      "type": "error"
    },
    {
      "inputs": [],
      "name": "ReentrancyGuardReentrantCall",
      "type": "error"
    },
    {
      "inputs": [],
      "name": "UUPSUnauthorizedCallContext",
      "type": "error"
    },
    {
      "inputs": [
        {
          "internalType": "bytes32",
          "name": "slot",
          "type": "bytes32"
        }
      ],
      "name": "UUPSUnsupportedProxiableUUID",
      "type": "error"
    },
    {
      "anonymous": false,
      "inputs": [
        {
          "indexed": true,
          "internalType": "address",
          "name": "owner",
          "type": "address"
        },
        {
          "indexed": true,
          "internalType": "address",
          "name": "approved",
          "type": "address"
        },
        {
          "indexed": true,
          "internalType": "uint256",
          "name": "tokenId",
          "type": "uint256"
        }
      ],
      "name": "Approval",
      "type": "event"
    },
    {
      "anonymous": false,
      "inputs": [
        {
          "indexed": true,
          "internalType": "address",
          "name": "owner",
          "type": "address"
        },
        {
          "indexed": true,
          "internalType": "address",
          "name": "operator",
          "type": "address"
        },
        {
          "indexed": false,
          "internalType": "bool",
          "name": "approved",
          "type": "bool"
        }
      ],
      "name": "ApprovalForAll",
      "type": "event"
    },
    {
      "anonymous": false,
      "inputs": [
        {
          "indexed": false,
          "internalType": "address",
          "name": "receiver",
          "type": "address"
        },
        {
          "indexed": true,
          "internalType": "address",
          "name": "token",
          "type": "address"
        },
        {
          "indexed": false,
          "internalType": "uint256",
          "name": "amount",
          "type": "uint256"
        }
      ],
      "name": "FundsWithdrawn",
      "type": "event"
    },
    {
      "anonymous": false,
      "inputs": [
        {
          "indexed": true,
          "internalType": "address",
          "name": "buyer",
          "type": "address"
        },
        {
          "indexed": false,
          "internalType": "uint256",
          "name": "tokenId",
          "type": "uint256"
        }
      ],
      "name": "LicenseMinted",
      "type": "event"
    },
    {
      "anonymous": false,
      "inputs": [
        {
          "indexed": true,
          "internalType": "address",
          "name": "previousOwner",
          "type": "address"
        },
        {
          "indexed": true,
          "internalType": "address",
          "name": "newOwner",
          "type": "address"
        }
      ],
      "name": "OwnershipTransferred",
      "type": "event"
    },
    {
      "anonymous": false,
      "inputs": [
        {
          "indexed": false,
          "internalType": "string",
          "name": "code",
          "type": "string"
        },
        {
          "indexed": false,
          "internalType": "uint256",
          "name": "discountPercentage",
          "type": "uint256"
        },
        {
          "indexed": false,
          "internalType": "uint256",
          "name": "affiliatePercentage",
          "type": "uint256"
        },
        {
          "indexed": false,
          "internalType": "address",
          "name": "affiliate",
          "type": "address"
        }
      ],
      "name": "ReferralCodeCreated",
      "type": "event"
    },
    {
      "anonymous": false,
      "inputs": [
        {
          "indexed": true,
          "internalType": "address",
          "name": "from",
          "type": "address"
        },
        {
          "indexed": true,
          "internalType": "address",
          "name": "to",
          "type": "address"
        },
        {
          "indexed": true,
          "internalType": "uint256",
          "name": "tokenId",
          "type": "uint256"
        }
      ],
      "name": "Transfer",
      "type": "event"
    },
    {
      "anonymous": false,
      "inputs": [
        {
          "indexed": true,
          "internalType": "address",
          "name": "implementation",
          "type": "address"
        }
      ],
      "name": "Upgraded",
      "type": "event"
    },
    {
      "inputs": [],
      "name": "UPGRADE_INTERFACE_VERSION",
      "outputs": [
        {
          "internalType": "string",
          "name": "",
          "type": "string"
        }
      ],
      "stateMutability": "view",
      "type": "function"
    },
    {
      "inputs": [
        {
          "internalType": "address",
          "name": "",
          "type": "address"
        }
      ],
      "name": "acceptedCurrencies",
      "outputs": [
        {
          "internalType": "bool",
          "name": "",
          "type": "bool"
        }
      ],
      "stateMutability": "view",
      "type": "function"
    },
    {
      "inputs": [
        {
          "internalType": "address",
          "name": "currency",
          "type": "address"
        }
      ],
      "name": "addAcceptedCurrency",
      "outputs": [],
      "stateMutability": "nonpayable",
      "type": "function"
    },
    {
      "inputs": [
        {
          "internalType": "address",
          "name": "",
          "type": "address"
        },
        {
          "internalType": "address",
          "name": "",
          "type": "address"
        }
      ],
      "name": "affiliateEarnings",
      "outputs": [
        {
          "internalType": "uint256",
          "name": "",
          "type": "uint256"
        }
      ],
      "stateMutability": "view",
      "type": "function"
    },
    {
      "inputs": [
        {
          "internalType": "address",
          "name": "to",
          "type": "address"
        },
        {
          "internalType": "uint256",
          "name": "tokenId",
          "type": "uint256"
        }
      ],
      "name": "approve",
      "outputs": [],
      "stateMutability": "nonpayable",
      "type": "function"
    },
    {
      "inputs": [
        {
          "internalType": "address",
          "name": "owner",
          "type": "address"
        }
      ],
      "name": "balanceOf",
      "outputs": [
        {
          "internalType": "uint256",
          "name": "",
          "type": "uint256"
        }
      ],
      "stateMutability": "view",
      "type": "function"
    },
    {
      "inputs": [
        {
          "internalType": "uint256",
          "name": "tokenId",
          "type": "uint256"
        }
      ],
      "name": "burn",
      "outputs": [],
      "stateMutability": "nonpayable",
      "type": "function"
    },
    {
      "inputs": [],
      "name": "canMint",
      "outputs": [
        {
          "internalType": "bool",
          "name": "",
          "type": "bool"
        }
      ],
      "stateMutability": "view",
      "type": "function"
    },
    {
      "inputs": [
        {
          "internalType": "string",
          "name": "code",
          "type": "string"
        },
        {
          "internalType": "uint256",
          "name": "discountPercentage",
          "type": "uint256"
        },
        {
          "internalType": "uint256",
          "name": "affiliatePercentage",
          "type": "uint256"
        },
        {
          "internalType": "address",
          "name": "affiliate",
          "type": "address"
        }
      ],
      "name": "createReferralCode",
      "outputs": [],
      "stateMutability": "nonpayable",
      "type": "function"
    },
    {
      "inputs": [
        {
          "internalType": "string",
          "name": "code",
          "type": "string"
        }
      ],
      "name": "disableReferralCode",
      "outputs": [],
      "stateMutability": "nonpayable",
      "type": "function"
    },
    {
      "inputs": [],
      "name": "fundsReceiver",
      "outputs": [
        {
          "internalType": "address",
          "name": "",
          "type": "address"
        }
      ],
      "stateMutability": "view",
      "type": "function"
    },
    {
      "inputs": [
        {
          "internalType": "uint256",
          "name": "tokenId",
          "type": "uint256"
        }
      ],
      "name": "getApproved",
      "outputs": [
        {
          "internalType": "address",
          "name": "",
          "type": "address"
        }
      ],
      "stateMutability": "view",
      "type": "function"
    },
    {
      "inputs": [
        {
          "internalType": "string",
          "name": "referralCode",
          "type": "string"
        }
      ],
      "name": "getMintPrice",
      "outputs": [
        {
          "internalType": "uint256",
          "name": "",
          "type": "uint256"
        }
      ],
      "stateMutability": "view",
      "type": "function"
    },
    {
      "inputs": [
        {
          "internalType": "address",
          "name": "owner",
          "type": "address"
        },
        {
          "internalType": "address",
          "name": "operator",
          "type": "address"
        }
      ],
      "name": "isApprovedForAll",
      "outputs": [
        {
          "internalType": "bool",
          "name": "",
          "type": "bool"
        }
      ],
      "stateMutability": "view",
      "type": "function"
    },
    {
      "inputs": [
        {
          "internalType": "address",
          "name": "currency",
          "type": "address"
        },
        {
          "internalType": "string",
          "name": "referralCode",
          "type": "string"
        }
      ],
      "name": "mint",
      "outputs": [],
      "stateMutability": "payable",
      "type": "function"
    },
    {
      "inputs": [],
      "name": "name",
      "outputs": [
        {
          "internalType": "string",
          "name": "",
          "type": "string"
        }
      ],
      "stateMutability": "view",
      "type": "function"
    },
    {
      "inputs": [],
      "name": "owner",
      "outputs": [
        {
          "internalType": "address",
          "name": "",
          "type": "address"
        }
      ],
      "stateMutability": "view",
      "type": "function"
    },
    {
      "inputs": [
        {
          "internalType": "uint256",
          "name": "tokenId",
          "type": "uint256"
        }
      ],
      "name": "ownerOf",
      "outputs": [
        {
          "internalType": "address",
          "name": "",
          "type": "address"
        }
      ],
      "stateMutability": "view",
      "type": "function"
    },
    {
      "inputs": [],
      "name": "price",
      "outputs": [
        {
          "internalType": "uint256",
          "name": "",
          "type": "uint256"
        }
      ],
      "stateMutability": "view",
      "type": "function"
    },
    {
      "inputs": [],
      "name": "proxiableUUID",
      "outputs": [
        {
          "internalType": "bytes32",
          "name": "",
          "type": "bytes32"
        }
      ],
      "stateMutability": "view",
      "type": "function"
    },
    {
      "inputs": [
        {
          "internalType": "string",
          "name": "",
          "type": "string"
        }
      ],
      "name": "referralCodes",
      "outputs": [
        {
          "internalType": "uint256",
          "name": "discountPercentage",
          "type": "uint256"
        },
        {
          "internalType": "uint256",
          "name": "affiliatePercentage",
          "type": "uint256"
        },
        {
          "internalType": "address",
          "name": "affiliate",
          "type": "address"
        },
        {
          "internalType": "bool",
          "name": "active",
          "type": "bool"
        }
      ],
      "stateMutability": "view",
      "type": "function"
    },
    {
      "inputs": [
        {
          "internalType": "address",
          "name": "currency",
          "type": "address"
        }
      ],
      "name": "removeAcceptedCurrency",
      "outputs": [],
      "stateMutability": "nonpayable",
      "type": "function"
    },
    {
      "inputs": [],
      "name": "renounceOwnership",
      "outputs": [],
      "stateMutability": "nonpayable",
      "type": "function"
    },
    {
      "inputs": [
        {
          "internalType": "address",
          "name": "from",
          "type": "address"
        },
        {
          "internalType": "address",
          "name": "to",
          "type": "address"
        },
        {
          "internalType": "uint256",
          "name": "tokenId",
          "type": "uint256"
        }
      ],
      "name": "safeTransferFrom",
      "outputs": [],
      "stateMutability": "nonpayable",
      "type": "function"
    },
    {
      "inputs": [
        {
          "internalType": "address",
          "name": "from",
          "type": "address"
        },
        {
          "internalType": "address",
          "name": "to",
          "type": "address"
        },
        {
          "internalType": "uint256",
          "name": "tokenId",
          "type": "uint256"
        },
        {
          "internalType": "bytes",
          "name": "data",
          "type": "bytes"
        }
      ],
      "name": "safeTransferFrom",
      "outputs": [],
      "stateMutability": "nonpayable",
      "type": "function"
    },
    {
      "inputs": [
        {
          "internalType": "address",
          "name": "operator",
          "type": "address"
        },
        {
          "internalType": "bool",
          "name": "approved",
          "type": "bool"
        }
      ],
      "name": "setApprovalForAll",
      "outputs": [],
      "stateMutability": "nonpayable",
      "type": "function"
    },
    {
      "inputs": [
        {
          "internalType": "bool",
          "name": "_canMint",
          "type": "bool"
        }
      ],
      "name": "setCanMint",
      "outputs": [],
      "stateMutability": "nonpayable",
      "type": "function"
    },
    {
      "inputs": [
        {
          "internalType": "address",
          "name": "_receiver",
          "type": "address"
        }
      ],
      "name": "setFundsReceiver",
      "outputs": [],
      "stateMutability": "nonpayable",
      "type": "function"
    },
    {
      "inputs": [
        {
          "internalType": "uint256",
          "name": "_price",
          "type": "uint256"
        }
      ],
      "name": "setPrice",
      "outputs": [],
      "stateMutability": "nonpayable",
      "type": "function"
    },
    {
      "inputs": [
        {
          "internalType": "bytes4",
          "name": "interfaceId",
          "type": "bytes4"
        }
      ],
      "name": "supportsInterface",
      "outputs": [
        {
          "internalType": "bool",
          "name": "",
          "type": "bool"
        }
      ],
      "stateMutability": "view",
      "type": "function"
    },
    {
      "inputs": [],
      "name": "symbol",
      "outputs": [
        {
          "internalType": "string",
          "name": "",
          "type": "string"
        }
      ],
      "stateMutability": "view",
      "type": "function"
    },
    {
      "inputs": [
        {
          "internalType": "bool",
          "name": "_state",
          "type": "bool"
        }
      ],
      "name": "toggleTransferability",
      "outputs": [],
      "stateMutability": "nonpayable",
      "type": "function"
    },
    {
      "inputs": [
        {
          "internalType": "uint256",
          "name": "tokenId",
          "type": "uint256"
        }
      ],
      "name": "tokenURI",
      "outputs": [
        {
          "internalType": "string",
          "name": "",
          "type": "string"
        }
      ],
      "stateMutability": "view",
      "type": "function"
    },
    {
      "inputs": [
        {
          "internalType": "address",
          "name": "from",
          "type": "address"
        },
        {
          "internalType": "address",
          "name": "to",
          "type": "address"
        },
        {
          "internalType": "uint256",
          "name": "tokenId",
          "type": "uint256"
        }
      ],
      "name": "transferFrom",
      "outputs": [],
      "stateMutability": "nonpayable",
      "type": "function"
    },
    {
      "inputs": [
        {
          "internalType": "address",
          "name": "newOwner",
          "type": "address"
        }
      ],
      "name": "transferOwnership",
      "outputs": [],
      "stateMutability": "nonpayable",
      "type": "function"
    },
    {
      "inputs": [],
      "name": "transferable",
      "outputs": [
        {
          "internalType": "bool",
          "name": "",
          "type": "bool"
        }
      ],
      "stateMutability": "view",
      "type": "function"
    },
    {
      "inputs": [
        {
          "internalType": "address",
          "name": "newImplementation",
          "type": "address"
        },
        {
          "internalType": "bytes",
          "name": "data",
          "type": "bytes"
        }
      ],
      "name": "upgradeToAndCall",
      "outputs": [],
      "stateMutability": "payable",
      "type": "function"
    },
    {
      "inputs": [
        {
          "internalType": "address",
          "name": "token",
          "type": "address"
        }
      ],
      "name": "withdrawFunds",
      "outputs": [],
      "stateMutability": "nonpayable",
      "type": "function"
    }
  ],
  "bytecode": "0x60a0604052306080526009805461ffff60a01b191661010160a01b17905534801561002957600080fd5b50336040518060400160405280600b81526020016a4e6f64654c6963656e736560a81b815250604051806040016040528060048152602001634e4f444560e01b815250816000908161007b91906101d5565b50600161008882826101d5565b5050506001600160a01b0381166100b957604051631e4fbdf760e01b81526000600482015260240160405180910390fd5b6100c2816100e4565b5060016007819055600a55600980546001600160a01b03191633179055610293565b600680546001600160a01b038381166001600160a01b0319831681179093556040519116919082907f8be0079c531659141344cd1fd0a4f28419497f9722a3daafe3b4186f6b6457e090600090a35050565b634e487b7160e01b600052604160045260246000fd5b600181811c9082168061016057607f821691505b60208210810361018057634e487b7160e01b600052602260045260246000fd5b50919050565b601f8211156101d057806000526020600020601f840160051c810160208510156101ad5750805b601f840160051c820191505b818110156101cd57600081556001016101b9565b50505b505050565b81516001600160401b038111156101ee576101ee610136565b610202816101fc845461014c565b84610186565b6020601f821160018114610236576000831561021e5750848201515b600019600385901b1c1916600184901b1784556101cd565b600084815260208120601f198516915b828110156102665787850151825560209485019460019092019101610246565b50848210156102845786840151600019600387901b60f8161c191681555b50505050600190811b01905550565b60805161269d6102bc6000396000818161161e015281816116470152611788015261269d6000f3fe6080604052600436106102255760003560e01c80638da5cb5b11610123578063b88d4fde116100ab578063dcd4f4271161006f578063dcd4f427146106da578063e8ef99f7146106fa578063e985e9c51461071a578063f2e2e2aa1461073a578063f2fde38b1461076a57600080fd5b8063b88d4fde14610646578063beb9716d14610666578063c87b56dd14610687578063cc92084d146106a7578063d0def521146106c757600080fd5b80639a57829a116100f25780639a57829a1461059f578063a035b1fe146105bf578063a22cb465146105d5578063abec9dcf146105f5578063ad3cb1cc1461061557600080fd5b80638da5cb5b1461052b57806391b7f5ed1461054957806392ff0d311461056957806395d89b411461058a57600080fd5b80632655e840116101b157806352d1902d1161017557806352d1902d146104a15780636352211e146104b657806368742da6146104d657806370a08231146104f6578063715018a61461051657600080fd5b80632655e8401461037b57806340bdc5e61461040857806342842e0e1461044e57806342966c681461046e5780634f1ef2861461048e57600080fd5b80630e134e78116101f85780630e134e78146102db578063141edd58146102fb57806323b872dd1461031b57806323c7e09c1461033b5780632594e7521461035b57600080fd5b806301ffc9a71461022a57806306fdde031461025f578063081812fc14610281578063095ea7b3146102b9575b600080fd5b34801561023657600080fd5b5061024a6102453660046120a8565b61078a565b60405190151581526020015b60405180910390f35b34801561026b57600080fd5b506102746107dc565b6040516102569190612115565b34801561028d57600080fd5b506102a161029c366004612128565b61086e565b6040516001600160a01b039091168152602001610256565b3480156102c557600080fd5b506102d96102d436600461215d565b610897565b005b3480156102e757600080fd5b506102d96102f6366004612233565b6108a6565b34801561030757600080fd5b506102d9610316366004612294565b6109cf565b34801561032757600080fd5b506102d96103363660046122af565b6109f9565b34801561034757600080fd5b506009546102a1906001600160a01b031681565b34801561036757600080fd5b506102d96103763660046122fa565b610a5b565b34801561038757600080fd5b506103d7610396366004612317565b8051602081830181018051600b825292820191909301209152805460018201546002909201549091906001600160a01b03811690600160a01b900460ff1684565b604051610256949392919093845260208401929092526001600160a01b031660408301521515606082015260800190565b34801561041457600080fd5b5061044061042336600461234c565b600c60209081526000928352604080842090915290825290205481565b604051908152602001610256565b34801561045a57600080fd5b506102d96104693660046122af565b610a81565b34801561047a57600080fd5b506102d9610489366004612128565b610a9c565b6102d961049c36600461237f565b610ab0565b3480156104ad57600080fd5b50610440610acb565b3480156104c257600080fd5b506102a16104d1366004612128565b610ae8565b3480156104e257600080fd5b506102d96104f1366004612294565b610af3565b34801561050257600080fd5b50610440610511366004612294565b610e45565b34801561052257600080fd5b506102d9610e8d565b34801561053757600080fd5b506006546001600160a01b03166102a1565b34801561055557600080fd5b506102d9610564366004612128565b610ea1565b34801561057557600080fd5b5060095461024a90600160a01b900460ff1681565b34801561059657600080fd5b50610274610eae565b3480156105ab57600080fd5b506102d96105ba3660046122fa565b610ebd565b3480156105cb57600080fd5b5061044060085481565b3480156105e157600080fd5b506102d96105f03660046123cd565b610ee3565b34801561060157600080fd5b506102d9610610366004612294565b610eee565b34801561062157600080fd5b50610274604051806040016040528060058152602001640352e302e360dc1b81525081565b34801561065257600080fd5b506102d9610661366004612404565b610f1a565b34801561067257600080fd5b5060095461024a90600160a81b900460ff1681565b34801561069357600080fd5b506102746106a2366004612128565b610f7e565b3480156106b357600080fd5b506102d96106c2366004612294565b610ff3565b6102d96106d536600461237f565b61101c565b3480156106e657600080fd5b506102d96106f5366004612317565b611364565b34801561070657600080fd5b50610440610715366004612317565b6113ad565b34801561072657600080fd5b5061024a61073536600461234c565b611477565b34801561074657600080fd5b5061024a610755366004612294565b600d6020526000908152604090205460ff1681565b34801561077657600080fd5b506102d9610785366004612294565b6114a5565b60006001600160e01b031982166380ac58cd60e01b14806107bb57506001600160e01b03198216635b5e139f60e01b145b806107d657506301ffc9a760e01b6001600160e01b03198316145b92915050565b6060600080546107eb9061246c565b80601f01602080910402602001604051908101604052809291908181526020018280546108179061246c565b80156108645780601f1061083957610100808354040283529160200191610864565b820191906000526020600020905b81548152906001019060200180831161084757829003601f168201915b5050505050905090565b6000610879826114e0565b506000828152600460205260409020546001600160a01b03166107d6565b6108a2828233611519565b5050565b6108ae611526565b828211156108fb5760405162461bcd60e51b815260206004820152601560248201527404150206d757374206265203c3d207468616e20445605c1b60448201526064015b60405180910390fd5b60408051608081018252848152602081018490526001600160a01b03831681830152600160608201529051600b906109349087906124a6565b9081526040805191829003602090810183208451815590840151600182015590830151600290910180546060909401511515600160a01b026001600160a81b03199094166001600160a01b0390921691909117929092179091557f186ae57743e5707cd47f43b86a7cb12dcbcdaac0f153d69f0b6f2574fb9d5420906109c19086908690869086906124c2565b60405180910390a150505050565b6109d7611526565b600980546001600160a01b0319166001600160a01b0392909216919091179055565b600954600160a01b900460ff16610a4b5760405162461bcd60e51b8152602060048201526016602482015275151c985b9cd9995c9cc8185c9948191a5cd8589b195960521b60448201526064016108f2565b610a56838383611553565b505050565b610a63611526565b60098054911515600160a01b0260ff60a01b19909216919091179055565b610a5683838360405180602001604052806000815250610f1a565b610aa4611526565b610aad816115d8565b50565b610ab8611613565b610ac1826116b8565b6108a282826116c0565b6000610ad561177d565b5060008051602061264883398151915290565b60006107d6826114e0565b610afb6117c6565b600080610b106006546001600160a01b031690565b6001600160a01b0316336001600160a01b031614610b2e5733610b3b565b6009546001600160a01b03165b90506001600160a01b038316610c12576006546001600160a01b03828116911614610b8b576001600160a01b038082166000908152600c6020908152604080832093871683529290522054610b8d565b475b6040519092506001600160a01b0382169083156108fc029084906000818181858888f19350505050158015610bc6573d6000803e3d6000fd5b50604080516001600160a01b038381168252602082018590528516917fa92ff919b850e4909ab2261d907ef955f11bc1716733a6cbece38d163a69af8a910160405180910390a2610de7565b6040516370a0823160e01b815230600482015283906000906001600160a01b038316906370a0823190602401602060405180830381865afa158015610c5b573d6000803e3d6000fd5b505050506040513d601f19601f82011682018060405250810190610c7f91906124fa565b9050610c936006546001600160a01b031690565b6001600160a01b0316836001600160a01b031614610cd6576001600160a01b038084166000908152600c6020908152604080832093891683529290522054610cd8565b805b935060008411610d2a5760405162461bcd60e51b815260206004820152601c60248201527f4e6f20746f6b656e2062616c616e636520746f2077697468647261770000000060448201526064016108f2565b60405163a9059cbb60e01b81526001600160a01b0384811660048301526024820186905283169063a9059cbb906044016020604051808303816000875af1158015610d79573d6000803e3d6000fd5b505050506040513d601f19601f82011682018060405250810190610d9d9190612513565b50604080516001600160a01b038581168252602082018790528716917fa92ff919b850e4909ab2261d907ef955f11bc1716733a6cbece38d163a69af8a910160405180910390a250505b6006546001600160a01b03828116911614610e39576001600160a01b038082166000908152600c6020908152604080832093871683529290529081208054849290610e33908490612546565b90915550505b5050610aad6001600755565b60006001600160a01b038216610e71576040516322718ad960e21b8152600060048201526024016108f2565b506001600160a01b031660009081526003602052604090205490565b610e95611526565b610e9f60006117f0565b565b610ea9611526565b600855565b6060600180546107eb9061246c565b610ec5611526565b60098054911515600160a81b0260ff60a81b19909216919091179055565b6108a2338383611842565b610ef6611526565b6001600160a01b03166000908152600d60205260409020805460ff19166001179055565b600954600160a01b900460ff16610f6c5760405162461bcd60e51b8152602060048201526016602482015275151c985b9cd9995c9cc8185c9948191a5cd8589b195960521b60448201526064016108f2565b610f78848484846118e1565b50505050565b6060610f89826114e0565b506000610fa160408051602081019091526000815290565b90506000815111610fc15760405180602001604052806000815250610fec565b80610fcb846118f9565b604051602001610fdc929190612559565b6040516020818303038152906040525b9392505050565b610ffb611526565b6001600160a01b03166000908152600d60205260409020805460ff19169055565b6110246117c6565b600954600160a81b900460ff1661107d5760405162461bcd60e51b815260206004820152601960248201527f4d696e74206973206e6f7420617661696c61626c65207965740000000000000060448201526064016108f2565b6001600160a01b0382166000908152600d602052604090205460ff166110dd5760405162461bcd60e51b815260206004820152601560248201527410dd5c9c995b98de481b9bdd081858d8d95c1d1959605a1b60448201526064016108f2565b600854604051600b906110f19084906124a6565b9081526040519081900360200190206002015460ff600160a01b909104161561122c576000600b8360405161112691906124a6565b90815260408051602092819003830181206080820183528054808352600182015494830194909452600201546001600160a01b03811692820192909252600160a01b90910460ff161515606082015260085490925060649161118791612588565b611191919061259f565b61119b9083612546565b9150600081602001511180156111bd575060408101516001600160a01b031615155b1561122a576000606482602001516008546111d89190612588565b6111e2919061259f565b6040808401516001600160a01b039081166000908152600c6020908152838220928a16825291909152908120805492935083929091906112239084906125c1565b9091555050505b505b6001600160a01b03831661128757803410156112825760405162461bcd60e51b8152602060048201526015602482015274125b9cdd59999a58da595b9d08115512081cd95b9d605a1b60448201526064016108f2565b611300565b6040516323b872dd60e01b8152336004820152306024820152604481018290526001600160a01b038416906323b872dd906064016020604051808303816000875af11580156112da573d6000803e3d6000fd5b505050506040513d601f19601f820116820180604052508101906112fe9190612513565b505b61130c33600a5461198c565b600a5460405190815233907fa61082ca5c0abc17994ed7c94b6d5c390edf79bab751fe2c7de47ddc3b02749c9060200160405180910390a2600a8054906000611354836125d4565b9190505550506108a26001600755565b61136c611526565b6000600b8260405161137e91906124a6565b9081526040519081900360200190206002018054911515600160a01b0260ff60a01b1990921691909117905550565b60008060085490506000600b846040516113c791906124a6565b90815260408051918290036020908101832060808401835280548452600181015491840191909152600201546001600160a01b0381168383015260ff600160a01b909104161515606083015251909150600b906114259086906124a6565b9081526040519081900360200190206002015460ff600160a01b909104161561147057805160085460649161145991612588565b611463919061259f565b61146d9083612546565b91505b5092915050565b6001600160a01b03918216600090815260056020908152604080832093909416825291909152205460ff1690565b6114ad611526565b6001600160a01b0381166114d757604051631e4fbdf760e01b8152600060048201526024016108f2565b610aad816117f0565b6000818152600260205260408120546001600160a01b0316806107d657604051637e27328960e01b8152600481018490526024016108f2565b610a5683838360016119f1565b6006546001600160a01b03163314610e9f5760405163118cdaa760e01b81523360048201526024016108f2565b6001600160a01b03821661157d57604051633250574960e11b8152600060048201526024016108f2565b600061158a838333611af7565b9050836001600160a01b0316816001600160a01b031614610f78576040516364283d7b60e01b81526001600160a01b03808616600483015260248201849052821660448201526064016108f2565b60006115e76000836000611af7565b90506001600160a01b0381166108a257604051637e27328960e01b8152600481018390526024016108f2565b306001600160a01b037f000000000000000000000000000000000000000000000000000000000000000016148061169a57507f00000000000000000000000000000000000000000000000000000000000000006001600160a01b031661168e600080516020612648833981519152546001600160a01b031690565b6001600160a01b031614155b15610e9f5760405163703e46dd60e11b815260040160405180910390fd5b610aad611526565b816001600160a01b03166352d1902d6040518163ffffffff1660e01b8152600401602060405180830381865afa92505050801561171a575060408051601f3d908101601f19168201909252611717918101906124fa565b60015b61174257604051634c9c8ce360e01b81526001600160a01b03831660048201526024016108f2565b600080516020612648833981519152811461177357604051632a87526960e21b8152600481018290526024016108f2565b610a568383611bf0565b306001600160a01b037f00000000000000000000000000000000000000000000000000000000000000001614610e9f5760405163703e46dd60e11b815260040160405180910390fd5b6002600754036117e957604051633ee5aeb560e01b815260040160405180910390fd5b6002600755565b600680546001600160a01b038381166001600160a01b0319831681179093556040519116919082907f8be0079c531659141344cd1fd0a4f28419497f9722a3daafe3b4186f6b6457e090600090a35050565b6001600160a01b03821661187457604051630b61174360e31b81526001600160a01b03831660048201526024016108f2565b6001600160a01b03838116600081815260056020908152604080832094871680845294825291829020805460ff191686151590811790915591519182527f17307eab39ab6107e8899845ad3d59bd9653f200f220920489ca2b5937696c31910160405180910390a3505050565b6118ec8484846109f9565b610f783385858585611c46565b6060600061190683611d71565b600101905060008167ffffffffffffffff81111561192657611926612187565b6040519080825280601f01601f191660200182016040528015611950576020820181803683370190505b5090508181016020015b600019016f181899199a1a9b1b9c1cb0b131b232b360811b600a86061a8153600a850494508461195a57509392505050565b6001600160a01b0382166119b657604051633250574960e11b8152600060048201526024016108f2565b60006119c483836000611af7565b90506001600160a01b03811615610a56576040516339e3563760e11b8152600060048201526024016108f2565b8080611a0557506001600160a01b03821615155b15611ac7576000611a15846114e0565b90506001600160a01b03831615801590611a415750826001600160a01b0316816001600160a01b031614155b8015611a545750611a528184611477565b155b15611a7d5760405163a9fbf51f60e01b81526001600160a01b03841660048201526024016108f2565b8115611ac55783856001600160a01b0316826001600160a01b03167f8c5be1e5ebec7d5bd14f71427d1e84f3dd0314c0f7b2291e5b200ac8c7c3b92560405160405180910390a45b505b5050600090815260046020526040902080546001600160a01b0319166001600160a01b0392909216919091179055565b6000828152600260205260408120546001600160a01b0390811690831615611b2457611b24818486611e49565b6001600160a01b03811615611b6257611b416000856000806119f1565b6001600160a01b038116600090815260036020526040902080546000190190555b6001600160a01b03851615611b91576001600160a01b0385166000908152600360205260409020805460010190555b60008481526002602052604080822080546001600160a01b0319166001600160a01b0389811691821790925591518793918516917fddf252ad1be2c89b69c2b068fc378daa952ba7f163c4a11628f55a4df523b3ef91a4949350505050565b611bf982611ead565b6040516001600160a01b038316907fbc7cd75a20ee27fd9adebab32041f755214dbc6bffa90cc0225b39da2e5c2d3b90600090a2805115611c3e57610a568282611f12565b6108a2611f88565b6001600160a01b0383163b15611d6a57604051630a85bd0160e11b81526001600160a01b0384169063150b7a0290611c889088908890879087906004016125ed565b6020604051808303816000875af1925050508015611cc3575060408051601f3d908101601f19168201909252611cc09181019061262a565b60015b611d2c573d808015611cf1576040519150601f19603f3d011682016040523d82523d6000602084013e611cf6565b606091505b508051600003611d2457604051633250574960e11b81526001600160a01b03851660048201526024016108f2565b805181602001fd5b6001600160e01b03198116630a85bd0160e11b14611d6857604051633250574960e11b81526001600160a01b03851660048201526024016108f2565b505b5050505050565b60008072184f03e93ff9f4daa797ed6e38ed64bf6a1f0160401b8310611db05772184f03e93ff9f4daa797ed6e38ed64bf6a1f0160401b830492506040015b6d04ee2d6d415b85acef81000000008310611ddc576d04ee2d6d415b85acef8100000000830492506020015b662386f26fc100008310611dfa57662386f26fc10000830492506010015b6305f5e1008310611e12576305f5e100830492506008015b6127108310611e2657612710830492506004015b60648310611e38576064830492506002015b600a83106107d65760010192915050565b611e54838383611fa7565b610a56576001600160a01b038316611e8257604051637e27328960e01b8152600481018290526024016108f2565b60405163177e802f60e01b81526001600160a01b0383166004820152602481018290526044016108f2565b806001600160a01b03163b600003611ee357604051634c9c8ce360e01b81526001600160a01b03821660048201526024016108f2565b60008051602061264883398151915280546001600160a01b0319166001600160a01b0392909216919091179055565b6060600080846001600160a01b031684604051611f2f91906124a6565b600060405180830381855af49150503d8060008114611f6a576040519150601f19603f3d011682016040523d82523d6000602084013e611f6f565b606091505b5091509150611f7f85838361200d565b95945050505050565b3415610e9f5760405163b398979f60e01b815260040160405180910390fd5b60006001600160a01b038316158015906120055750826001600160a01b0316846001600160a01b03161480611fe15750611fe18484611477565b8061200557506000828152600460205260409020546001600160a01b038481169116145b949350505050565b6060826120225761201d82612069565b610fec565b815115801561203957506001600160a01b0384163b155b1561206257604051639996b31560e01b81526001600160a01b03851660048201526024016108f2565b5080610fec565b8051156120795780518082602001fd5b60405163d6bda27560e01b815260040160405180910390fd5b6001600160e01b031981168114610aad57600080fd5b6000602082840312156120ba57600080fd5b8135610fec81612092565b60005b838110156120e05781810151838201526020016120c8565b50506000910152565b600081518084526121018160208601602086016120c5565b601f01601f19169290920160200192915050565b602081526000610fec60208301846120e9565b60006020828403121561213a57600080fd5b5035919050565b80356001600160a01b038116811461215857600080fd5b919050565b6000806040838503121561217057600080fd5b61217983612141565b946020939093013593505050565b634e487b7160e01b600052604160045260246000fd5b600082601f8301126121ae57600080fd5b81356020830160008067ffffffffffffffff8411156121cf576121cf612187565b50604051601f19601f85018116603f0116810181811067ffffffffffffffff821117156121fe576121fe612187565b60405283815290508082840187101561221657600080fd5b838360208301376000602085830101528094505050505092915050565b6000806000806080858703121561224957600080fd5b843567ffffffffffffffff81111561226057600080fd5b61226c8782880161219d565b945050602085013592506040850135915061228960608601612141565b905092959194509250565b6000602082840312156122a657600080fd5b610fec82612141565b6000806000606084860312156122c457600080fd5b6122cd84612141565b92506122db60208501612141565b929592945050506040919091013590565b8015158114610aad57600080fd5b60006020828403121561230c57600080fd5b8135610fec816122ec565b60006020828403121561232957600080fd5b813567ffffffffffffffff81111561234057600080fd5b6120058482850161219d565b6000806040838503121561235f57600080fd5b61236883612141565b915061237660208401612141565b90509250929050565b6000806040838503121561239257600080fd5b61239b83612141565b9150602083013567ffffffffffffffff8111156123b757600080fd5b6123c38582860161219d565b9150509250929050565b600080604083850312156123e057600080fd5b6123e983612141565b915060208301356123f9816122ec565b809150509250929050565b6000806000806080858703121561241a57600080fd5b61242385612141565b935061243160208601612141565b925060408501359150606085013567ffffffffffffffff81111561245457600080fd5b6124608782880161219d565b91505092959194509250565b600181811c9082168061248057607f821691505b6020821081036124a057634e487b7160e01b600052602260045260246000fd5b50919050565b600082516124b88184602087016120c5565b9190910192915050565b6080815260006124d560808301876120e9565b60208301959095525060408101929092526001600160a01b0316606090910152919050565b60006020828403121561250c57600080fd5b5051919050565b60006020828403121561252557600080fd5b8151610fec816122ec565b634e487b7160e01b600052601160045260246000fd5b818103818111156107d6576107d6612530565b6000835161256b8184602088016120c5565b83519083019061257f8183602088016120c5565b01949350505050565b80820281158282048414176107d6576107d6612530565b6000826125bc57634e487b7160e01b600052601260045260246000fd5b500490565b808201808211156107d6576107d6612530565b6000600182016125e6576125e6612530565b5060010190565b6001600160a01b0385811682528416602082015260408101839052608060608201819052600090612620908301846120e9565b9695505050505050565b60006020828403121561263c57600080fd5b8151610fec8161209256fe360894a13ba1a3210667c828492db98dca3e2076cc3735a920a3ca505d382bbca2646970667358221220a3f5a26ba79966a512f200c5851aac7f157db3ab254e8c5be9b6a8fd4f7418a364736f6c634300081c0033",
  "linkReferences": {},
  "deployedLinkReferences": {}
}